{
  "contractName": "NFTSale",
  "abi": [
    {
      "inputs": [],
      "stateMutability": "nonpayable",
      "type": "constructor"
    },
    {
      "inputs": [
        {
          "internalType": "address",
          "name": "",
          "type": "address"
        }
      ],
      "name": "owners",
      "outputs": [
        {
          "internalType": "uint16",
          "name": "",
          "type": "uint16"
        }
      ],
      "stateMutability": "view",
      "type": "function"
    },
    {
      "inputs": [],
      "name": "price",
      "outputs": [
        {
          "internalType": "uint256",
          "name": "",
          "type": "uint256"
        }
      ],
      "stateMutability": "view",
      "type": "function"
    },
    {
      "inputs": [
        {
          "internalType": "uint8",
          "name": "_amount",
          "type": "uint8"
        }
      ],
      "name": "buy",
      "outputs": [
        {
          "internalType": "bool",
          "name": "",
          "type": "bool"
        }
      ],
      "stateMutability": "payable",
      "type": "function"
    }
  ],
  "bytecode": "0x608060405234801561001057600080fd5b5067016345785d8a00006000819055506105728061002f6000396000f3fe6080604052600436106100345760003560e01c8063022914a71461003957806314107f3c14610076578063a035b1fe146100a6575b600080fd5b34801561004557600080fd5b50610060600480360381019061005b9190610277565b6100d1565b60405161006d91906102c1565b60405180910390f35b610090600480360381019061008b9190610315565b6100f2565b60405161009d919061035d565b60405180910390f35b3480156100b257600080fd5b506100bb61020e565b6040516100c89190610391565b60405180910390f35b60016020528060005260406000206000915054906101000a900461ffff1681565b6000808260ff1611610139576040517f08c379a000000000000000000000000000000000000000000000000000000000815260040161013090610409565b60405180910390fd5b6000548260ff1661014a9190610458565b34101561018c576040517f08c379a0000000000000000000000000000000000000000000000000000000008152600401610183906104e6565b60405180910390fd5b8160ff16600160003373ffffffffffffffffffffffffffffffffffffffff1673ffffffffffffffffffffffffffffffffffffffff16815260200190815260200160002060008282829054906101000a900461ffff166101eb9190610506565b92506101000a81548161ffff021916908361ffff16021790555060019050919050565b60005481565b600080fd5b600073ffffffffffffffffffffffffffffffffffffffff82169050919050565b600061024482610219565b9050919050565b61025481610239565b811461025f57600080fd5b50565b6000813590506102718161024b565b92915050565b60006020828403121561028d5761028c610214565b5b600061029b84828501610262565b91505092915050565b600061ffff82169050919050565b6102bb816102a4565b82525050565b60006020820190506102d660008301846102b2565b92915050565b600060ff82169050919050565b6102f2816102dc565b81146102fd57600080fd5b50565b60008135905061030f816102e9565b92915050565b60006020828403121561032b5761032a610214565b5b600061033984828501610300565b91505092915050565b60008115159050919050565b61035781610342565b82525050565b6000602082019050610372600083018461034e565b92915050565b6000819050919050565b61038b81610378565b82525050565b60006020820190506103a66000830184610382565b92915050565b600082825260208201905092915050565b7f496e76616c6964207175616e7469747900000000000000000000000000000000600082015250565b60006103f36010836103ac565b91506103fe826103bd565b602082019050919050565b60006020820190508181036000830152610422816103e6565b9050919050565b7f4e487b7100000000000000000000000000000000000000000000000000000000600052601160045260246000fd5b600061046382610378565b915061046e83610378565b925082820261047c81610378565b9150828204841483151761049357610492610429565b5b5092915050565b7f496e76616c696420616d6f756e742073656e7400000000000000000000000000600082015250565b60006104d06013836103ac565b91506104db8261049a565b602082019050919050565b600060208201905081810360008301526104ff816104c3565b9050919050565b6000610511826102a4565b915061051c836102a4565b9250828201905061ffff81111561053657610535610429565b5b9291505056fea2646970667358221220bc05eea197e97358ef87e1d7c572d6691b759c8bfddd5eb96cac07c627a7f56864736f6c63430008110033",
  "immutableReferences": {},
  "source": "// SPDX-License-Identifier: MIT\r\n\r\npragma solidity 0.8.17;\r\n\r\ncontract NFTSale {\r\n    uint256 public price;\r\n    mapping(address => uint16) public owners;\r\n\r\n    constructor() {\r\n        price = 0.1 ether;\r\n    }\r\n\r\n    function buy(uint8 _amount) external payable returns (bool) {\r\n        require(_amount > 0, \"Invalid quantity\");\r\n        require(msg.value >= _amount * price, \"Invalid amount sent\");\r\n\r\n        owners[msg.sender] += _amount;\r\n\r\n        return true;\r\n    }\r\n}\r\n",
  "sourcePath": "C:\\Users\\Divyesh\\Desktop\\Repos\\prog-test\\contracts\\Sale.sol",
  "compiler": {
    "name": "solc",
    "version": "0.8.17+commit.8df45f5f.Emscripten.clang"
  },
  "schemaVersion": "3.4.8",
  "updatedAt": "2022-11-24T14:08:24.642Z",
  "devdoc": {
    "kind": "dev",
    "methods": {},
    "version": 1
  },
  "userdoc": {
    "kind": "user",
    "methods": {},
    "version": 1
  }
}